:020000040800F2
:1000000000000220B12500088D1300088F1300089E
:1000100091130008931300089513000800000000D6
:10002000000000000000000000000000971300081E
:1000300099130008000000009B1300089D1300089E
:1000400001260008012600080126000801260008F4
:1000500001260008012600080126000801260008E4
:1000600001260008012600080126000801260008D4
:1000700001260008012600080126000801260008C4
:1000800001260008012600080126000801260008B4
:1000900001260008012600080126000801260008A4
:1000A0000126000801260008012600080126000894
:1000B0000126000801260008012600080126000884
:1000C0000126000801260008012600080126000874
:1000D00001260008A51300080126000801260008D3
:1000E0000126000801260008012600080126000854
:1000F0000126000801260008012600080126000844
:100100000126000801260008012600080126000833
:100110000126000801260008012600080126000823
:100120000126000801260008012600080126000813
:100130000126000801260008012600080126000803
:1001400001260008012600080126000801260008F3
:1001500001260008012600080126000801260008E3
:1001600001260008012600080126000801260008D3
:1001700001260008012600080126000800000000F2
:08018000012600080126000819
:10018800044B05481B1A062B02D9044B03B1184728
:10019800704700BF730000207000002000000000BE
:1001A80005490648091A891001EBD171491002D096
:1001B800034B03B1184770477000002070000020FF
:1001C8000000000010B5064C237843B9FFF7D8FFAC
:1001D800044B13B10448AFF300800123237010BD12
:1001E80070000020000000000426000808B5084B35
:1001F8001BB108490848AFF300800848036813B9E1
:10020800BDE80840CCE7064B002BF9D09847F7E744
:100218000000000074000020042600087000002080
:100228000000000070B50F4E0F4D761BB61018BFBA
:10023800002405D0013455F8043B9847A642F9D16B
:100248000A4E0B4D761B02F0D9F9B61018BF0024E0
:1002580006D0013455F8043B9847A642F9D170BD41
:1002680070BD00BFC4260008C4260008C8260008C0
:10027800C426000870B4860746D0541E002A41D010
:10028800CAB2034602E014F1FF343BD303F8012B52
:100298009D07F8D1032C2ED9CDB245EA05250F2CA0
:1002A80045EA054519D903F110022646103E0F2EDE
:1002B80042F8105C42F80C5C42F8085C42F8045CB6
:1002C80002F11002F2D8A4F1100222F00F0204F099
:1002D8000F041032032C13440DD91E462246043A4B
:1002E800032A46F8045BFAD8221F22F003020432DC
:1002F800134404F003042CB1C9B21C4403F8011BD5
:100308009C42FBD170BC704714460346C2E700BF4D
:100318002DE9F0410E46804600283ED08369002B27
:1003280039D084682F4B9C4243D02F4B9C4256D0E7
:100338002E4B9C4208BFD8F80C40A3891B073DD51B
:100348002369002B3AD0013EA36816F8015F013BF0
:10035800A360B5B1002B04DB23685A1C22601D7012
:10036800F2E7A769BB4222462946404601DB0A2D2F
:10037800F2D100F045F80130E6D14FF0FF30BDE88A
:10038800F081002B21DB23680A22591C21601A7096
:100398001046BDE8F08100F0DFFAD8F81830D8F838
:1003A8000840002BBED1404600F0D6FA0D4B9C42C7
:1003B800BBD1D8F80440A3891B07C1D421464046C5
:1003C80000F080F80028BED0D7E7224640460A2130
:1003D80000F016F80130D0D00A20BDE8F081D8F836
:1003E8000840AAE7602600084026000820260008E2
:1003F800024B01461868FFF78BBF00BF00000020C2
:10040800F8B50D461446064610B18369002B42D054
:10041800254B9C4244D0254B9C4243D0244B9C42C4
:1004280008BFF468A389A269A2601A0722D52369C4
:1004380003B322686169D31AEDB28B422F4621DAE1
:100448000133A168501C0139A160206015706269F0
:100458009A4206D0A389DB0701D50A2D01D0384678
:10046800F8BD2146304600F03BF90028F7D04FF0A0
:10047800FF37F4E72146304600F024F80028F6D18B
:100488002369D6E72146304600F02AF90028EED144
:1004980022680123D5E700F05FFA034B9C42BAD1EA
:1004A8007468BFE7B468BDE7602600084026000806
:1004B80020260008024B0A4601461868FFF7A0BF2D
:1004C80000000020384B70B51D6806460C4615B173
:1004D800AB69002B42D0354B9C4245D0344B9C42F3
:1004E80058D0344B9C4208BFEC68B4F90C2093B246
:1004F80019070CD52069A8B113F001021ED0636951
:1005080000225B42A361A260F0B1002070BDDD064D
:1005180042D558072AD4206942F00803A3819BB228
:100528000028E9D103F42072B2F5007FE4D0304608
:10053800214600F0AFFAA3892069DDE7990758BF83
:100548006269A2600028E0D1B4F90C301A06DDD542
:1005580043F04003A3814FF0FF3070BD284600F000
:10056800FBF9124B9C42B9D16C68BEE7616B51B183
:1005780004F14403994204D0304600F0CFFAB4F9AC
:100588000C200023636300232069636022F02402A7
:100598002060C1E7AC68A8E742F040020923336055
:1005A8004FF0FF30A28170BD0000002060260008D7
:1005B80040260008202600088B891A072DE9F041FB
:1005C8000D46804633D44A68002A67DDEC6A002C61
:1005D80045D00022D8F80060C8F8002013F48052F3
:1005E80060D06A6D5F0705D569686B6B521A0BB1ED
:1005F8002B6CD21A0023296A4046A047441C39D0E4
:10060800AB892A692A60DB044FF000026A6043D490
:10061800696BC8F8006011B305F14403994202D030
:10062800404600F07BFA00206863BDE8F0810E695F
:10063800AEB10C680E6098070CBF4B690023A41B71
:100648008B600AE023463246AF6A296A4046B847BB
:100658000028A4EB0004064404DD002CF2DC002092
:10066800BDE8F081AB8943F04003AB814FF0FF3028
:10067800BDE8F081D8F800201D2AF3D8174BD340E5
:10068800DB4313F00103EDD1A9892C696B60C90420
:100698002C60BDD5002ABBD16865B9E70A6C002A71
:1006A80094DCDCE70123296A4046A047431C024644
:1006B80002D0AB89EC6A95E7D8F80030002BF8D067
:1006C8001D2B01D0162B02D1C8F80060C7E7AB89F3
:1006D80043F04003AB81BDE8F08100BF010040203A
:1006E8000B6933B310B5044682B008B18369ABB166
:1006F800114B994219D0114B994218D0104B99427D
:1007080008BFE168B1F90C3013B9002002B010BD80
:10071800204602B0BDE81040FFF74EBF019100F03F
:100728001BF90199044B9942E5D16168EAE7A16890
:10073800E8E70020704700BF602600084026000850
:100748002026000820B1054B01461868FFF7C8BFEE
:10075800034B0449186800F045B900BF00000020A9
:100768001C260008E906000800207047014900F02F
:1007780039B900BFE90600080020704770B54A1E65
:10078800682505FB02F50E4605F1740100F00EFA26
:10079800044640B100210C30666005F16802216012
:1007A800A060FFF767FD204670BD00BF204B70B505
:1007B8001D68AB6906465BB348356B68AC68013B9E
:1007C80005D521E0013B5A1C04F168041CD0B4F99A
:1007D8000C20002AF6D100254FF6FF720123E28192
:1007E800A38165662560A560656025616561A56171
:1007F8002946082204F15C00FFF73CFD6563A56308
:10080800A564E564204670BD286828B10546D4E78C
:10081800284600F00FF8CFE704213046FFF7AEFF77
:1008280028600028F2D10C2304463360EAE700BFB1
:100838001C2600083D4B3E491A682DE9F04F9042AE
:100848004FF000038364C364036508BF012383B0CA
:1008580008BF836181620746FFF7A8FF78603846C2
:10086800FFF7A4FFB8603846FFF7A0FF7D68F8607F
:1008780000240423AB812C606C60AC606C66EC8156
:100888002C616C61AC61214605F15C000822FFF720
:10089800F1FCBE68DFF89CB0DFF89CA0DFF89C9004
:1008A800DFF89C80C5F824B001230922C5F828A0E8
:1008B800C5F82C90C5F830802D622146F381B281AD
:1008C80034607460B460746634617461B46106F154
:1008D8005C0008220193FFF7CDFCFD683662122008
:1008E8000222C6F824B0C6F828A0C6F82C90C6F88C
:1008F80030802146A881EA812C606C60AC606C660F
:100908002C616C61AC6105F15C000822FFF7B2FC58
:10091800019B2D62C5F824B0C5F828A0C5F82C9015
:10092800C5F83080BB6103B0BDE8F08F1C26000815
:1009380075070008950C0008BD0C0008F90C0008A4
:10094800190D0008024B0349186800F04BB800BFA6
:100958001C260008E9060008836903B96AE770479E
:10096800704700BF704700BF704700BF704700BFA7
:10097800024B0349186800F00FB800BF00000020C0
:1009880081070008024B0349186800F005B800BF4A
:1009980000000020710700082DE9F04110F1480718
:1009A8001BD0884600267D68BC68013D0FD4A3890A
:1009B800012B05F1FF3506D9B4F90E300133204675
:1009C80001D0C04706436B1C04F16804EFD13F68AF
:1009D800002FE8D13046BDE8F0813E463046BDE8FC
:1009E800F08100BF2DE9F84310F148071FD0884671
:1009F80006464FF000097D68BC68013D11D4A38903
:100A0800012B05F1FF3508D9B4F90E300133214621
:100A1800304602D0C04749EA00096B1C04F168045B
:100A2800EDD13F68002FE6D14846BDE8F883B946C6
:100A38004846BDE8F88300BF70B50C46B1F90E1002
:100A4800002990B015461E4613DB01AA00F08CF968
:100A580000280EDB029A02F47042A2F50052B2FAA4
:100A680082F252094FF48063002032602B6010B08C
:100A780070BDA38900221B06326004D540230020E4
:100A88002B6010B070BD4FF4806300202B6010B055
:100A980070BD00BF8A8992070B4606D501F147024F
:100AA80001211A601A6159617047F0B583B001AB32
:100AB8006A460C460546FFF7BFFF009906462846DA
:100AC80000F074F8B4F90C30D0B1019A124F0099C3
:100AD800AF6243F08003A3812060206161611AB98D
:100AE8003343A38103B0F0BD2846B4F90E1000F0DB
:100AF8004FF9B4F90C300028F2D043F00103EFE7C6
:100B08009A05EFD404F1470243F002030121A381BF
:100B1800226022616161E5E77507000891B151F82B
:100B2800043C0439002BB8BFC9181F4B1A68FAB126
:100B38008A4230B40AD908680C18A24226D04A6002
:100B4800196030BC70478B4203D81A465368002B93
:100B5800F9D1146815198D420DD006D808680C18FB
:100B68009C4219D04B605160EBE70C230360E8E727
:100B78004A601960704709680C4411199942146059
:100B8800DFD10ACB0C4453601460DAE7146852686A
:100B98004A6020440860D3E71C685B684B602044C7
:100BA80008605160CDE700BF8C00002070B5CC1CF8
:100BB80024F0030408340C2C38BF0C24002C0646FF
:100BC8003BDBA14239D8274D296851B10A68121B6D
:100BD80004D436E01A68121B1AD519464B68002B44
:100BE800F8D16968002937D02146304600F03CF832
:100BF800431C22D0C31C23F00305A84205D0291AA0
:100C0800304600F031F8013017D02C602B4604E054
:100C18000B2A0DD91A6013441C6003F10B0020F055
:100C280007001A1D821A02D05142995070BD70BD3A
:100C38008B420ED05A684A60EFE70C2333600020DD
:100C480070BD0B2A03D84A680B462A60E5E70B46B5
:100C5800E0E70A460B46F8E7304600F005F868601A
:100C6800C2E700BF8C00002038B5074C00230546BA
:100C78000846236000F0F2F8431C00D038BD236812
:100C8800002BFBD02B6038BDF000002010B50C46BF
:100C9800B1F90E1000F0A4F8002803DB636D0344DB
:100CA800636510BDA38923F48053A38110BD00BFE1
:100CB800002070472DE9F0411646B1F90C201F4677
:100CC800D3050C46054607D500220223B1F90E10BC
:100CD80000F070F8B4F90C20B4F90E1022F4805228
:100CE800A2813B4632462846BDE8F04100F014B8E0
:100CF80010B50C46B1F90E1000F05CF8A389421C3F
:100D08000EBF23F4805343F480536065A38110BD64
:100D1800B1F90E1000F016B870B50D46084C114622
:100D280006461A4628460023236001F04DF8431C66
:100D380000D070BD2368002BFBD0336070BD00BFAE
:100D4800F000002038B5074C00230546084623600C
:100D580000F05CF8431C00D038BD2368002BFBD0A2
:100D68002B6038BDF000002038B50B46074C05460F
:100D7800114618460023236000F050F8431C00D0A9
:100D880038BD2368002BFBD02B6038BDF000002055
:100D980038B5074C002305460846236000F046F89E
:100DA800431C00D038BD2368002BFBD02B6038BD16
:100DB800F000002070B50D46084C114606461A464C
:100DC80028460023236000F039F8431C00D070BD8A
:100DD8002368002BFBD0336070BD00BFF0000020FB
:100DE80070B50D46084C114606461A46284600239B
:100DF800236000F02BF8431C00D070BD2368002B43
:100E0800FBD0336070BD00BFF0000020024B5822B9
:100E18001A604FF0FF307047F0000020024B582254
:100E28001A604FF0FF307047F0000020024B582244
:100E38001A600020704700BFF0000020024B5822C3
:100E48001A604FF0FF307047F0000020024B582224
:100E58001A604FF0FF307047F0000020044A05493F
:100E68001368002B08BF0B461844106018467047DB
:100E780094000020F800002053B94AB9002908BF9F
:100E880000281CBF4FF0FF314FF0FF3000F07AB957
:100E9800ADF1080C6DE904CE00F006F8DDF804E0C9
:100EA800DDE9022304B070472DE9F0478C460D4672
:100EB8000446089E002B51D18A4217466DD9B2FAD2
:100EC80082FEBEF1000F0BD0CEF1200C01FA0EF518
:100ED80020FA0CFC02FA0EF74CEA050C00FA0EF4A4
:100EE8004FEA174A250CBCFBFAF81FFA87F90AFBE8
:100EF80018CC45EA0C4508FB09F3AB420AD9ED19B1
:100F080008F1FF3280F02381AB4240F22081A8F142
:100F180002083D44ED1AA4B2B5FBFAF00AFB1055DD
:100F280044EA054400FB09F9A14509D9E41900F18F
:100F3800FF3380F00A81A14540F2078102383C4422
:100F4800A4EB090440EA08400021002E61D024FAED
:100F58000EF4002334607360BDE8F0878B4207D934
:100F6800002E54D0002186E821000846BDE8F0870D
:100F7800B3FA83F1002940F08E80AB4202D382425B
:100F880000F2FA80841A65EB03050120AC46002EB6
:100F98003FD086E81010BDE8F08712B90127B7FBEB
:100FA800F2F7B7FA87FEBEF1000F34D1EB1B3A0C0B
:100FB8001FFA87FC0121B3FBF2F8250C02FB18335A
:100FC80045EA03450CFB08F3AB4207D9ED1908F1D4
:100FD800FF3002D2AB4200F2D1808046ED1AA3B2B4
:100FE800B5FBF2F002FB105543EA05440CFB00FC8C
:100FF800A44507D9E41900F1FF3302D2A44500F251
:10100800B8801846A4EB0C0440EA08409DE7314636
:101018003046BDE8F087CEF1200405FA0EF307FA52
:101028000EF720FA04F83A0C25FA04F448EA030803
:10103800B4FBF2F14FEA184502FB11441FFA87FC92
:1010480045EA044501FB0CF3AB4200FA0EF409D95A
:10105800ED1901F1FF3080F08A80AB4240F28780C1
:1010680002393D44EB1A1FFA88F5B3FBF2F002FB94
:10107800103345EA034500FB0CF3AB4207D9ED19E1
:1010880000F1FF386FD2AB426DD902383D44EB1AFC
:1010980040EA01418FE7C1F1200722FA07F88B40A7
:1010A80005FA01F448EA030320FA07FE4FEA134C55
:1010B800FD404EEA040EB5FBFCF94FEA1E440CFB5A
:1010C80019551FFA83F844EA054509FB08F4AC42B0
:1010D80002FA01F200FA01FA08D9ED1809F1FF3015
:1010E80043D2AC4241D9A9F102091D442D1B1FFA74
:1010F8008EFEB5FBFCF00CFB10554EEA054400FBD8
:1011080008F8A04507D9E41800F1FF3529D2A04511
:1011180027D902381C4440EA0940A4EB0804A0FB84
:1011280002894C45C6464D4615D312D056B1BAEB86
:101138000E0364EB050404FA07F7CB401F43CC40C9
:10114800376074600021BDE8F0871846F8E69046DD
:10115800E0E6C245EAD2B8EB020E69EB03050138B6
:10116800E4E72846D7E7404691E78146BEE70146CF
:1011780078E702383C4445E7084608E7A8F1020842
:101188003D442BE7704700BF72B6FEE700B595B047
:101198003022002108A8FFF76DF800230393049379
:1011A80005930693079301931C4A116C41F08051F3
:1011B8001164126C02F080520192019A0293184A4B
:1011C800116841F480411160126802F48042029271
:1011D800029A0222089201210B9110210C910E9281
:1011E8000F931091C023119312920423139308A80C
:1011F80000F010F968B90F230393002104910591B9
:101208000691079103A800F053FB20B915B05DF8CB
:1012180004FBFFF7B9FFFFF7B7FF00BF0038024034
:101228000070004008B500F001FEFFF7AFFF00F0C6
:101238000BF800F025F800F04BF80248FFF7D8F853
:10124800FEE700BF8026000882B0002100910B4B0A
:101258001A6B42F080021A631A6B02F08002009245
:10126800009A01911A6B42F001021A631B6B03F09A
:1012780001030193019B02B0704700BF0038024090
:1012880008B50548054B036000F0ACF800B908BD87
:10129800FFF77AFFFBE700BF980000200008065020
:1012A8000268094B9A4200D0704782B0002301932C
:1012B800064B5A6B42F040025A635B6B03F04003E3
:1012C8000193019B02B0EFE7000806500038024086
:1012D80008B50A480A4B03604FF4E1334360002322
:1012E8008360C36003610C2242618361C36100F0C3
:1012F800F1FE00B908BDFFF747FFFBE7A800002093
:101308000010014010B588B000230393049305939F
:1013180006930793026803F1804303F588339A42E2
:1013280001D008B010BD0024019403F594335A6C21
:1013380042F010025A645A6C02F010020192019AAB
:1013480002941A6B42F001021A631B6B03F001034B
:101358000293029B4FF4C063039302230493032375
:1013680006930723079303A9054800F077FB224655
:101378002146252000F0D2FC252000F001FDD0E711
:1013880000000240FEE7FEE7FEE7FEE7FEE77047E3
:101398007047704708B500F063FD08BD08B50248FE
:1013A80000F0BEFF08BD00BFA800002082B00021E9
:1013B80000910B4B5A6C42F480425A645A6C02F406
:1013C80080420092009A01911A6C42F080521A648D
:1013D8001B6C03F080530193019B02B0704700BF60
:1013E8000038024098B110B5044643795BB1022336
:1013F80063712268136843F0040313600123637167
:101408000020A06010BD0371FFF74AFFEFE701203D
:1014180070470000002800F0E98170B582B00446EA
:10142800036813F0010F3BD0A74B9B6803F00C0334
:10143800042B2CD0A44B9B6803F00C03082B21D061
:101448006368B3F5803F4FD0B3F5A02F52D09E4BC1
:101458001A6822F480321A601A6822F480221A600C
:101468006368002B50D000F007FD0546964B1B68BB
:1014780013F4003F14D100F0FFFC401B6428F5D999
:101488000320B8E1904B5B6813F4800FD8D08E4BE3
:101498001B6813F4003F03D06368002B00F0A88199
:1014A800236813F0020F55D0874B9B6813F00C0F7D
:1014B8003ED0854B9B6803F00C03082B33D0E368C0
:1014C800002B68D00122814B1A6000F0D5FC05463C
:1014D8007D4B1B6813F0020F54D100F0CDFC401B6C
:1014E8000228F5D9032086E1774A136843F480334C
:1014F8001360B5E7744B1A6842F480221A601A68C0
:1015080042F480321A60ABE700F0B6FC05466E4B39
:101518001B6813F4003FC3D000F0AEFC401B6428E6
:10152800F5D9032067E1684B5B6813F4800FC6D1D7
:10153800654B1B6813F0020F04D0E368012B01D040
:10154800012058E1604A136823F0F803216943EA4F
:10155800C1031360236813F0080F40D0636963B3B5
:1015680001225B4B1A6000F087FC0546564B5B6F07
:1015780013F0020F33D100F07FFC401B0228F5D98D
:10158800032038E1504A136823F0F803216943EA3D
:10159800C1031360DEE700224C4B1A6000F06CFCBC
:1015A8000546494B1B6813F0020FD3D000F064FCCA
:1015B800401B0228F5D903201DE10022444B1A6084
:1015C80000F05AFC0546404B5B6F13F0020F06D043
:1015D80000F052FC401B0228F5D903200BE12368D8
:1015E80013F0040F79D0384B1B6C13F0805F33D1A4
:1015F80000230193344B1A6C42F080521A641B6C1E
:1016080003F080530193019B0125324B1B6813F4AF
:10161800807F23D0A368012B34D0052B38D02A4BE8
:101628001A6F22F001021A671A6F22F004021A6771
:10163800A368002B36D000F01FFC0646224B1B6F18
:1016480013F0020F48D100F017FC801B41F28833D9
:101658009842F3D90320CEE00025D6E71D4A136847
:1016680043F48073136000F007FC0646194B1B68AF
:1016780013F4807FCED100F0FFFB801B0228F5D940
:101688000320B8E0104A136F43F001031367CFE754
:101698000D4B1A6F42F004021A671A6F42F00102EA
:1016A8001A67C5E700F0E8FB0646074B1B6F13F007
:1016B800020F11D000F0E0FB801B41F28833984202
:1016C800F3D9032097E000BF0038024000004742EA
:1016D800800E474200700040EDB9A369002B00F06E
:1016E8008980484A926802F00C02082A51D0022BDD
:1016F80017D00022444B1A6000F0BEFB0446414B51
:101708001B6813F0007F42D000F0B6FB001B0228D4
:10171800F5D903206FE03B4A136C23F08053136420
:10172800DBE70022384B1A6000F0A6FB0546354B74
:101738001B6813F0007F06D000F09EFB401B0228B8
:10174800F5D9032057E0E369226A1343626A43EA42
:101758008213A26A5208013A43EA0243E26A43EA60
:101768000263284A53600122274B1A6000F084FB69
:101778000446244B1B6813F0007F06D100F07CFB65
:10178800001B0228F5D9032035E0002033E00020B3
:1017980031E0012B31D01B4B5B6803F48001E26917
:1017A800914201D0012026E003F03F02216A8A42DB
:1017B80001D001201FE0616A47F6C0721A40B2EBFF
:1017C800811F01D0012016E003F44031A26A5208BB
:1017D800013AB1EB024F01D001200CE003F0706335
:1017E800E26AB3EB026F0AD0012004E001207047DF
:1017F800012000E0002002B070BD0120FBE70020BE
:10180800F9E700BF0038024060004742F8B5254BB1
:101818009B6803F00C03042B41D0082B01D022480D
:10182800F8BD204B5A6802F03F025B6813F4800F42
:1018380012D01C4B5968C1F3881100231B48A1FB27
:101848000001FFF719FB174B5B68C3F30143013332
:101858005B00B0FBF3F0F8BD124B5B68C3F3881371
:101868001E4600275C010025E41A65EB0705A9015F
:1018780041EA9461A001001B61EB0501CB0043EA3A
:101888005073C400A01943EB07018B0243EA90533D
:101898008402204619460023FFF7EEFAD3E70348EF
:1018A800F8BD00BF003802400024F40040787D01F4
:1018B800002800F09E8070B50446504B1B6803F06A
:1018C80007038B4209D2CBB24C4A1370136803F05A
:1018D8000703994201D0012070BD236813F0020F5D
:1018E80017D013F0040F04D0454A936843F4E0532B
:1018F8009360236813F0080F04D0414A936843F4B7
:10190800604393603E4A936823F0F003A068034362
:1019180093600D46236813F0010F32D06368012BE2
:1019280021D09A1E012A25D9354A126812F0020FD1
:1019380061D033498A6822F0030213438B6000F0B8
:101948009BFA06462E4B9B6803F00C036268B3EBC8
:10195800820F16D000F090FA801B41F2883398422B
:10196800F0D9032070BD264A126812F4003FE0D176
:10197800012070BD224A126812F0007FD9D10120DF
:1019880070BD1E4B1B6803F007039D4209D2EAB2E3
:101998001A4B1A701B6803F007039D4201D00120FF
:1019A80070BD236813F0040F06D0154A936823F41A
:1019B800E053E1680B439360236813F0080F07D0E6
:1019C8000F4A936823F46043216943EAC103936093
:1019D800FFF71CFF0A4B9B68C3F30313094AD35C48
:1019E800D840094B1860094B186800F0F9F9002035
:1019F80070BD01207047012070BD00BF003C02404F
:101A080000380240A02600086C0000206800002072
:101A1800014B1868704700BF6C00002008B5FFF73D
:101A2800F7FF044B9B68C3F38223034AD35CD84077
:101A380008BD00BF00380240B026000808B5FFF70F
:101A4800E7FF044B9B68C3F34233034AD35CD84097
:101A580008BD00BF00380240B026000800230F2B45
:101A680000F2E080F0B583B062E085684FEA430E8B
:101A7800032707FA0EF725EA0705CE6806FA0EF6D9
:101A880035438560456825EA02024D68C5F30015AF
:101A98009D402A43426057E0DD08083550F825206C
:101AA80003F00706B6000F27B74022EA07020F69BE
:101AB80007FA06F6324340F8252059E0072600E0E9
:101AC800002606FA0EF635430232574E46F82250E3
:101AD800564A9568E24305EA02064F6817F4801FE4
:101AE80001D044EA0506514DAE60ED6802EA0506EC
:101AF8004F6817F4001F01D044EA05064B4DEE600D
:101B08006D6802EA05064F6817F4003F01D044EA01
:101B18000506464D6E602D682A404E6816F4803FD3
:101B280001D044EA0502414C226001330F2B77D8DB
:101B380001229A400C681440A242F6D14D6805F083
:101B48000305013D012D90D94A6802F00302032ADA
:101B580009D0C2685F000326BE4022EA06028D68EB
:101B6800BD402A43C2604A6802F00302022A93D0A9
:101B780002685F000326BE4022EA06024D6805F0AF
:101B88000305BD402A4302604A6812F4403FCCD0A6
:101B980000220192264A556C45F480455564526CE2
:101BA80002F480420192019A9A08961C1E4D55F83B
:101BB800265003F003064FEA860E0F2606FA0EF6A5
:101BC80025EA06051B4FB8423FF47AAF1A4EB042D9
:101BD8001AD006F58066B04218D006F58066B04285
:101BE80016D006F58066B04214D006F58066B0427D
:101BF80012D006F58066B04210D006F58066B04275
:101C08003FF45CAF08265CE701265AE7022658E74E
:101C1800032656E7042654E7052652E7062650E72A
:101C280003B0F0BD704700BF00380140003C0140E0
:101C380000380240000002400004024070B504462B
:101C4800866D00F019F994F83530DBB2022B06D016
:101C580080236365002384F83430012070BD054675
:101C68002268136823F0160313602268536923F06F
:101C780080035361236CE3B12268136823F00803DF
:101C880013602268136823F00103136023681B683C
:101C980013F0010F11D000F0EFF8401B0528F5D91B
:101CA80020236365032084F83500002384F834304A
:101CB80070BDA36C002BDFD1E3E7E26D3F239340B7
:101CC800B360012384F83530002084F8340070BDF7
:101CD80090F83530DBB2022B03D080234365012016
:101CE8007047052380F835300268136823F0010334
:101CF8001360002070470000074AD36823F4E063AC
:101D08001B041B0C000200F4E060184340F0BF60A5
:101D180040F40030D060704700ED00E030B4164B5E
:101D2800DB68C3F30223C3F10704042C28BF04248F
:101D38001D1D062D17D9033B012505FA04F4013CA6
:101D48002140994005FA03F3013B13401943002849
:101D58000BDB0901C9B200F1604000F5614080F871
:101D6800001330BC70470023E6E700F00F000901BC
:101D7800C9B2024B1954F4E700ED00E014ED00E09D
:101D8800002808DB420900F01F00012303FA00F0D5
:101D9800014B43F82200704700E100E00138B0F140
:101DA800807F0AD2064B5860F021064A82F8231039
:101DB8000020986007221A6070470120704700BF12
:101DC80010E000E000ED00E010B514464FF6FF7398
:101DD80092B2024800F0ADF9204610BDA8000020DC
:101DE80010B504460E4B18784FF47A73B3FBF0F332
:101DF8000C4A1068B0FBF3F0FFF7D0FF68B90F2C5E
:101E080001D9012010BD002221464FF0FF30FFF715
:101E180085FF054B1C60002010BD012010BD00BFD0
:101E2800640000206C0000206800002008B50B4BFF
:101E38001A6842F400721A601A6842F480621A60E2
:101E48001A6842F480721A600320FFF755FF0F20CA
:101E5800FFF7C6FFFFF7AAFA002008BD003C0240C2
:101E6800034A1168034B1B780B441360704700BF8B
:101E7800EC00002064000020014B1868704700BF88
:101E8800EC000020026802F10C0353E8003F23F441
:101E980090730C3242E800310029F3D1026802F154
:101EA800140353E8003F23F00103143242E80031E1
:101EB8000029F3D1036B012B05D0202380F83E3095
:101EC800002303637047026802F10C0353E8003FE4
:101ED80023F010030C3242E800310029F3D1ECE77B
:101EE80090F83D30DBB2212B01D002207047836887
:101EF800B3F5805F17D00268036A591C01621B782A
:101F08005360C38C9BB2013B9BB2C384C3B90268C4
:101F1800D36823F08003D3600268D36843F040039A
:101F2800D360002070470369002BE4D1036A02687C
:101F38001B88C3F308035360036A02330362E0E7B4
:101F480000207047F8B504460268136923F440532B
:101F5800C1680B43136183680269134342691343E1
:101F6800C26913430168CA6822F4164222F00C02BF
:101F78001343CB600268536923F4407381690B43B0
:101F880053610368314A934232D002F5806293422A
:101F98002ED0FFF743FDE369B3F5004F2BD025683A
:101FA8000021061841EB010736184F41FB0043EAB0
:101FB8005673F20016461F4663689A009B0F8019F5
:101FC8007941FEF759FF224CA4FB003251096422E3
:101FD80002FB110213013233A4FB03235B0903F054
:101FE800F00202EB011203F00F031344AB60F8BDDB
:101FF800FFF724FDCFE725680021061841EB01070C
:1020080036184F41FB0043EA5673F20016461F4646
:102018006268002392185B4180197941FEF72CFF12
:102028000B4CA4FB00325109642202FB1102D300BD
:102038003233A4FB03235B095A0002F4F87202EB63
:10204800011203F007031344AB60F8BD0010014010
:102058001F85EB512DE9F04104460F461646984678
:10206800069D23681B6837EA03030CBF012300237E
:10207800B3422CD1B5F1FF3FF3D02DB1FFF7FCFEF1
:10208800A0EB08008542ECD2226802F10C0353E869
:10209800003F23F4D0730C3242E800310029F3D119
:1020A800226802F1140353E8003F23F001031432BD
:1020B80042E800310029F3D1202384F83D3084F828
:1020C8003E30002384F83C300320BDE8F081002036
:1020D800BDE8F08158B310B5044690F83D300BB315
:1020E800242384F83D302268D36823F40053D36056
:1020F8002046FFF727FF2268136923F490431361F2
:102108002268536923F02A0353612268D36843F491
:102118000053D36000202064202384F83D3084F8E5
:102128003E3010BD80F83C30FFF7ECF8D8E70120CE
:1021380070472DE9F04182B01E4690F83D30DBB281
:10214800202B04D00223184602B0BDE8F0810446D3
:102158000D469046002954D0002A54D090F83C30BF
:10216800012B01D10223EEE7012380F83C30002344
:102178000364212380F83D30FFF77EFE0746A4F86C
:102188002480A4F82680A368B3F5805F05D04FF0BB
:102198000008002384F83C3012E0236913B14FF0A3
:1021A8000008F6E7A8460025F3E7226838F8023B5E
:1021B800C3F308035360E38C9BB2013B9BB2E384F7
:1021C800E38C9BB273B100963B46002280212046E7
:1021D800FFF740FFC8B9002DE7D0236815F8012B99
:1021E8005A60E8E700963B46002240212046FFF768
:1021F80031FF034608B10323A5E7202284F83D20D8
:10220800A1E701239FE701239DE703239BE770478D
:1022180008B50168CB6823F04003CB60202380F821
:102228003D30FFF7F4FF002008BD7047704708B540
:10223800806B0023C385C384FFF7F8FF08BD704790
:1022480090F83E30DBB2222B01D002207047836821
:10225800B3F5805F0AD0826AB3F5805F02D093B984
:10226800036983B903685B68137011E00269002A87
:10227800F1D1826A03685B68C3F308031380836A39
:102288000233836207E003685B6803F07F0313701F
:10229800836A01338362C38D9BB2013B9BB2C385C2
:1022A800002B3BD100B583B00268D36823F020032C
:1022B800D3600268D36823F48073D36002685369DB
:1022C80023F001035361202380F83E30036B012B78
:1022D80005D0FFF7AAFF002003B05DF804FB002338
:1022E8000363026802F10C0353E8003F23F0100374
:1022F8000C3242E800310029F3D103681A6812F061
:10230800100F06D0002201921A6801925B680193AF
:10231800019B818DFFF793FF0020DDE700207047C8
:1023280030B583B0044602681368D068516913F069
:102338000F0505D113F0200F02D010F0200F5ED149
:10234800002D72D011F0010102D110F4907F6CD0F1
:1023580013F0010F06D010F4807F03D0226C42F0F6
:102368000102226413F0040F04D019B1226C42F068
:102378000202226413F0020F04D019B1226C42F059
:102388000402226413F0080F07D010F0200F00D1C8
:1023980019B1226C42F008022264226C002A55D03E
:1023A80013F0200F02D010F0200F2CD123685B69A6
:1023B80003F04003226C12F0080F00D17BB32046D3
:1023C800FFF760FD23685B6913F0400F23D0226894
:1023D80002F1140353E8003F23F04003143242E8AB
:1023E80000310029F3D1A36B8BB1694A1A65A06B40
:1023F800FFF76EFC50B3A06B036D984726E02046AC
:10240800FFF71EFF22E02046FFF71AFFCEE720461F
:10241800FFF70CFF1AE02046FFF708FF16E02046FA
:10242800FFF704FF0023236410E0216B01290FD07C
:1024380013F0800F03D010F0800F40F0A18013F04C
:10244800400F03D010F0400F40F09E8003B030BD25
:1024580013F0100FECD010F0100FE9D00023019307
:102468001368019353680193019B536913F0400F5C
:102478004ED0A26B13685B689BB2002BE6D0A18D8F
:102488008B42E3D2E385D369B3F5807F37D02268E6
:1024980002F10C0353E8003F23F480730C3242E846
:1024A80000310029F3D1226802F1140353E8003FF8
:1024B80023F00103143242E800310029F3D12268E5
:1024C80002F1140353E8003F23F04003143242E8BA
:1024D80000310029F3D1202384F83E300023236300
:1024E800226802F10C0353E8003F23F010030C327A
:1024F80042E800310029F3D1A06BFFF79FFBA18DC3
:10250800E38D9BB2C91A89B22046FFF798FE9DE772
:10251800A18DE38D9BB2C91A89B2E38D9BB2002BC2
:1025280094D0002992D0226802F10C0353E8003FAE
:1025380023F490730C3242E800300028F3D122686B
:1025480002F1140353E8003F23F00103143242E878
:1025580000300028F3D1202384F83E300023236381
:10256800226802F10C0353E8003F23F010030C32F9
:1025780042E800300028F3D12046FFF760FE65E707
:102588002046FFF7ADFC61E72046FFF741FE5DE717
:1025980037220008034AD2F8883043F47003C2F89F
:1025A8008830704700ED00E0DFF834D00D480E4960
:1025B8000E4A002302E0D458C4500433C4188C4295
:1025C800F9D30B4A0B4C002301E013600432A242FA
:1025D800FBD3FFF7DFFFFDF725FEFEF723FE70476D
:1025E800000002200000002070000020CC26000817
:1025F80070000020F4000020FEE70000F8B500BFDE
:10260800F8BC08BC9E467047F8B500BFF8BC08BCCB
:042618009E46704723
:10261C00040000200000000000000000000000008A
:10262C00000000000000000000000000000000009E
:10263C00000000000000000000000000000000008E
:10264C00000000000000000000000000000000007E
:10265C00000000000000000000000000000000006E
:10266C00000000000000000000000000000000005E
:10267C0000000000746573746D6573736167656148
:10268C00616161616161616161616161616161612E
:10269C006161610000000000000000000102030401
:1026AC0006070809000000000102030443000000B3
:0826BC00F4E7FF7F01000000BC
:0426C400F501000814
:0426C800CD01000838
:1026CC0004000020000000006026000840260008DE
:1026DC0020260008000000000000000000000000A0
:1026EC0000000000B82600080000000000000000F8
:1026FC0000000000000000000000000000000000CE
:10270C0000000000000000000000000000000000BD
:10271C0000000000000000000000000000000000AD
:10272C000000000001000000100000000024F40074
:04000005080025B119
:00000001FF
